S02700004F6E2D64656D616E642054726166666963204C6967687420436F6E74726F6C2E73726563B2
S11300000C942A000C9464000C943C000C943C0066
S11300100C943C000C943C000C943C000C943C006C
S11300200C943C000C943C000C943C000C943C005C
S11300300C943C000C943C000C943C000C943C004C
S11300400C943C000C943C000C943C000C943C003C
S11300500C943C0011241FBECFE5D8E0DEBFCDBF19
S113006020E0A0E6B0E001C01D92AF36B207E1F790
S11300700E9468020C94DF050C94000060E081E4A7
S11300800E944D0261E081E40E944D0262E081E43D
S11300900E944D0260E082E40E944D0261E082E42D
S11300A00E944D0262E082E40E944D0262E084E418
S11300B00E9446020E947E01789485B7836085BFC2
S11300C08BB780648BBF08951F920F920FB60F9267
S11300D011248F9381E0809360008F910F900FBE65
S11300E00F901F9018951F93CF93DF93182F60E004
S11300F081E40E945B0262E082E40E945402C0E058
S1130100D0E00DC061E081E40E94620261E082E41B
S11301100E9462028AEF90E00E9480012196C4311D
S1130120D10584F361E081E40E945B0262E081E432
S11301300E94540261E082E40E945B0260E082E477
S11301400E94540262E082E40E945B0288E893E128
S11301500E94800162E081E40E945B02C0E0D0E082
S11301600DC061E081E40E94620261E082E40E94C9
S113017062028AEF90E00E9480012196C431D10589
S113018084F360E082E40E945B0261E082E40E9406
S11301905B0262E082E40E94540260E081E40E9417
S11301A0540261E081E40E945B0262E081E40E9407
S11301B05B0288E893E10E94800162E082E40E948D
S11301C05B0260E081E40E945B02113099F462E01A
S11301D081E40E945B02C0E0D0E009C061E081E4F8
S11301E00E9462028AEF90E00E9480012196C4314D
S11301F0D105A4F310926000DF91CF911F9108956F
S113020060E082E40E94540288E893E10E94800145
S113021060E082E40E945B02109260000895CF9334
S1130220DF9360E081E40E94540261E081E40E9473
S11302305B02C0E0D0E00CC08AEF90E00E94800135
S113024080916000813019F480E00E94730021964F
S1130250C431D1058CF360E081E40E945B0262E06A
S113026081E40E945B02C0E0D0E00FC061E081E461
S11302700E9462028AEF90E00E94800180916000F7
S1130280813011F40E9473002196C431D10574F3B6
S113029061E081E40E945B0262E081E40E94540216
S11302A0C0E0D0E00BC08AEF90E00E948001809112
S11302B06000813011F40E9400012196C431D105FF
S11302C094F362E081E40E945B02C0E0D0E010C0DD
S11302D061E081E40E9462028AEF90E00E94800162
S11302E080916000813019F480E00E9473002196AF
S11302F0C431D1056CF3DF91CF91089513BE0895F5
S11303008F929F92AF92BF92CF92DF92EF92FF9221
S1130310BC0110926800109267008FE692E1A3E896
S1130320BEE38093610090936200A0936300B09356
S113033064008FE692E1A3E8B2E480936B009093AB
S11303406C00A0936D00B0936E0080E090E00E947A
S1130350EC046B017C012FE632E143E852E40E9495
S113036046048823DCF4A70196016FE672E183E872
S113037092E40E94C2032FE632E143E85EE30E9466
S11303804B040E94BD0470936A006093690081E08D
S113039090E090936600809365004AC02FE632E1B6
S11303A043E852E4C701B6010E94460481110BC020
S11303B010926A001092690081E090E090936600C8
S11303C08093650035C02FE632E143E852E4C7016B
S11303D0B6010E944B040E942F040E94BD044B01ED
S11303E05C0170936600609365002FE632E143E898
S11303F05EE3C701B6010E944B046B017C01B401AA
S113040080E090E00E94EC049B01AC01C701B601BE
S11304100E944B049B01AC0160E070E080E893E42F
S11304200E94C2030E94BD0470936A006093690035
S11304308091690082BF83B7846083BF12C088B78C
S1130440816088BF08B600FEFDCF88B7816088BF91
S11304508091670090916800019690936800809362
S11304606700209167003091680080916500909149
S113047066002817390718F313BEFF90EF90DF903A
S1130480CF90BF90AF909F908F900895982F862F14
S113049040E0692F0E946D020895982F862F41E055
S11304A0692F0E946D020895982F862F41E0692FCD
S11304B00E94F8020895982F862F40E0692F0E9429
S11304C0F8020895982F862F692F0E9483030895B8
S11304D00E943E000E940F01FDCF623459F118F4CE
S11304E0613441F00895633409F444C0643409F478
S11304F060C0089541110EC04AB321E030E0B90153
S113050002C0660F771F8A95E2F7CB01809584239A
S11305108ABB0895413009F06AC04AB321E030E053
S1130520B90102C0660F771F8A95E2F7CB01842BCD
S11305308ABB089541110EC047B321E030E0B901F0
S113054002C0660F771F8A95E2F7CB01809584235A
S113055087BB0895413009F04AC047B321E030E039
S1130560B90102C0660F771F8A95E2F7CB01842B8D
S113057087BB089541110EC044B321E030E0B901B6
S113058002C0660F771F8A95E2F7CB01809584231A
S113059084BB0895413059F544B321E030E0B901FA
S11305A002C0660F771F8A95E2F7CB01842B84BBC8
S11305B0089541110EC041B321E030E0B90102C0F9
S11305C0660F771F8A95E2F7CB018095842381BB60
S11305D00895413061F441B321E030E0B90102C033
S11305E0660F771F8A95E2F7CB01842B81BB0895B0
S11305F0623459F118F4613441F00895633409F414
S113060044C0643409F460C0089541110EC04BB372
S113061021E030E0B90102C0660F771F8A95E2F746
S1130620CB01809584238BBB0895413009F06AC0C7
S11306304BB321E030E0B90102C0660F771F8A9501
S1130640E2F7CB01842B8BBB089541110EC048B354
S113065021E030E0B90102C0660F771F8A95E2F706
S1130660CB018095842388BB0895413009F04AC0AA
S113067048B321E030E0B90102C0660F771F8A95C4
S1130680E2F7CB01842B88BB089541110EC045B31A
S113069021E030E0B90102C0660F771F8A95E2F7C6
S11306A0CB018095842385BB0895413059F545B32A
S11306B021E030E0B90102C0660F771F8A95E2F7A6
S11306C0CB01842B85BB089541110EC042B321E0B8
S11306D030E0B90102C0660F771F8A95E2F7CB01BB
S11306E08095842382BB0895413061F442B321E0B4
S11306F030E0B90102C0660F771F8A95E2F7CB019B
S1130700842B82BB08956234B1F018F4613431F063
S113071008956334E9F0643441F108954BB321E062
S113072030E0B90102C0660F771F8A95E2F7CB016A
S113073084278BBB089548B321E030E0B90102C09F
S1130740660F771F8A95E2F7CB01842788BB08954B
S113075045B321E030E0B90102C0660F771F8A95E6
S1130760E2F7CB01842785BB089542B321E030E052
S1130770B90102C0660F771F8A95E2F7CB0184277F
S113078082BB08955058BB27AA270E94DA030C9411
S11307908D050E947F0538F00E94860520F039F40B
S11307A09F3F19F426F40C947C050EF4E095E7FBC6
S11307B00C944D05E92F0E949E0558F3BA17620761
S11307C073078407950720F079F4A6F50C94D805EF
S11307D00EF4E0950B2EBA2FA02D0B01B901900158
S11307E00C01CA01A0011124FF27591B99F0593F9C
S11307F050F4503E68F11A16F040A22F232F342FE4
S11308004427585FF3CF469537952795A795F04031
S11308105395C9F77EF41F16BA0B620B730B840B46
S1130820BAF09150A1F0FF0FBB1F661F771F881FFE
S1130830C2F70EC0BA0F621F731F841F48F4879556
S113084077956795B795F7959E3F08F0B0CF939548
S1130850880F08F09927EE0F9795879508950E94C1
S1130860C00590F09F3748F4911116F40C94D90503
S113087060E070E080E89FE3089526F01B16611D98
S1130880711D811D0C9453050C946E050E9429055D
S113089008F481E008950E945F040C948D050E9481
S11308A0860558F00E947F0540F029F45F3F29F047
S11308B00C944D0551110C94D9050C947C050E949F
S11308C09E0568F39923B1F3552391F3951B550BBA
S11308D0BB27AA2762177307840738F09F5F5F4F0F
S11308E0220F331F441FAA1FA9F335D00E2E3AF04E
S11308F0E0E832D091505040E695001CCAF72BD066
S1130900FE2F29D0660F771F881FBB1F26173707B6
S11309104807AB07B0E809F0BB0B802DBF01FF27E8
S113092093585F4F3AF09E3F510578F00C944D0573
S11309300C94D9055F3FE4F3983ED4F386957795FC
S11309406795B795F7959F5FC9F7880F911D9695A1
S1130950879597F90895E1E0660F771F881FBB1FFD
S1130960621773078407BA0720F0621B730B840BAA
S1130970BA0BEE1F88F7E09508950E94A60588F04B
S11309809F5798F0B92F9927B751B0F0E1F0660F4F
S1130990771F881F991F1AF0BA95C9F714C0B13090
S11309A091F00E94D805B1E008950C94D805672F02
S11309B0782F8827B85F39F0B93FCCF386957795BF
S11309C06795B395D9F73EF49095809570956195A8
S11309D07F4F8F4F9F4F0895E89409C097FB3EF4D3
S11309E090958095709561957F4F8F4F9F4F992378
S11309F0A9F0F92F96E9BB279395F69587957795F6
S1130A006795B795F111F8CFFAF4BB0F11F460FFB5
S1130A101BC06F5F7F4F8F4F9F4F16C0882311F00D
S1130A2096E911C0772321F09EE8872F762F05C021
S1130A30662371F096E8862F70E060E02AF09A95BC
S1130A40660F771F881FDAF7880F9695879597F9B1
S1130A500895990F0008550FAA0BE0E8FEEF16164B
S1130A601706E807F907C0F012161306E407F5079E
S1130A7098F0621B730B840B950B39F40A2661F012
S1130A80232B242B252B21F408950A2609F4A140B5
S1130A90A6958FEF811D811D089597F99F6780E8C2
S1130AA070E060E00895882371F4772321F0985072
S1130AB0872B762F07C0662311F499270DC0905118
S1130AC0862B70E060E02AF09A95660F771F881FE6
S1130AD0DAF7880F9695879597F908959F3F31F037
S1130AE0915020F4879577956795B795880F911D58
S1130AF09695879597F908959FEF80EC08950024C3
S1130B000A941616170618060906089500240A946E
S1130B1012161306140605060895092E0394000CF4
S1130B2011F4882352F0BB0F40F4BF2B11F460FF83
S1130B3004C06F5F7F4F8F4F9F4F089557FD9058AC
S1130B40440F551F59F05F3F71F04795880F97FB8D
S1130B50991F61F09F3F79F0879508951216130647
S1130B601406551FF2CF4695F1DF08C01616170676
S1130B701806991FF1CF86957105610508940895AB
S1130B800E94A605A0F0BEE7B91788F4BB279F38DA
S1130B9060F41616B11D672F782F8827985FF7CF5A
S1130BA0869577956795B11D93959639C8F3089501
S1130BB0E894BB2766277727CB0197F90895F89423
S1050BC0FFCF61
S9030000FC
